{
  "contractName": "ZKProofVerifier",
  "abi": [
    {
      "inputs": [
        {
          "internalType": "bytes",
          "name": "proof",
          "type": "bytes"
        }
      ],
      "name": "verifyProof",
      "outputs": [
        {
          "internalType": "bool",
          "name": "",
          "type": "bool"
        }
      ],
      "stateMutability": "pure",
      "type": "function",
      "constant": true
    }
  ],
  "bytecode": "0x608060405234801561001057600080fd5b50610198806100206000396000f3fe608060405234801561001057600080fd5b506004361061002b5760003560e01c806355c265fe14610030575b600080fd5b61004a600480360381019061004591906100df565b610060565b6040516100579190610147565b60405180910390f35b6000808383905011905092915050565b600080fd5b600080fd5b600080fd5b600080fd5b600080fd5b60008083601f84011261009f5761009e61007a565b5b8235905067ffffffffffffffff8111156100bc576100bb61007f565b5b6020830191508360018202830111156100d8576100d7610084565b5b9250929050565b600080602083850312156100f6576100f5610070565b5b600083013567ffffffffffffffff81111561011457610113610075565b5b61012085828601610089565b92509250509250929050565b60008115159050919050565b6101418161012c565b82525050565b600060208201905061015c6000830184610138565b9291505056fea2646970667358221220794d8db7965b7939702f00aeaf4f0f1169ea538d4488127e5dee4fb4ba2b16b264736f6c63430008130033",
  "immutableReferences": {},
  "source": "// SPDX-License-Identifier: MIT\r\npragma solidity ^0.8.19;\r\n\r\n// Mô phỏng một ZKP Verifier (chỉ trả về true)\r\ncontract ZKProofVerifier {\r\n    function verifyProof(bytes calldata proof) public pure returns (bool) {\r\n        // Giả lập xác minh thành công\r\n        return proof.length > 0;\r\n    }\r\n}",
  "sourcePath": "D:\\01VHQ\\Uni\\hk2\\bmcsdl_code\\v2\\contracts\\ZKProofVerifier.sol",
  "compiler": {
    "name": "solc",
    "version": "0.8.19+commit.7dd6d404.Emscripten.clang"
  },
  "schemaVersion": "3.4.16",
  "updatedAt": "2025-04-12T08:34:40.634Z",
  "networkType": "ethereum",
  "devdoc": {
    "kind": "dev",
    "methods": {},
    "version": 1
  },
  "userdoc": {
    "kind": "user",
    "methods": {},
    "version": 1
  }
}